{
  "contractName": "write",
  "abi": [
    {
      "constant": false,
      "inputs": [
        {
          "internalType": "bytes",
          "name": "x1",
          "type": "bytes"
        },
        {
          "internalType": "bytes",
          "name": "x2",
          "type": "bytes"
        },
        {
          "internalType": "uint256",
          "name": "rM",
          "type": "uint256"
        },
        {
          "internalType": "bytes",
          "name": "y1",
          "type": "bytes"
        }
      ],
      "name": "test",
      "outputs": [],
      "payable": false,
      "stateMutability": "nonpayable",
      "type": "function"
    }
  ],
  "bytecode": "0x60806040526000805534801561001457600080fd5b50610262806100246000396000f3fe608060405234801561001057600080fd5b506004361061002b5760003560e01c8063ae8cfb9b14610030575b600080fd5b61004a600480360361004591908101906100bb565b61004c565b005b50505050565b600082601f83011261006357600080fd5b813561007661007182610193565b610166565b9150808252602083016020830185838301111561009257600080fd5b61009d8382846101c9565b50505092915050565b6000813590506100b581610208565b92915050565b600080600080608085870312156100d157600080fd5b600085013567ffffffffffffffff8111156100eb57600080fd5b6100f787828801610052565b945050602085013567ffffffffffffffff81111561011457600080fd5b61012087828801610052565b9350506040610131878288016100a6565b925050606085013567ffffffffffffffff81111561014e57600080fd5b61015a87828801610052565b91505092959194509250565b6000604051905081810181811067ffffffffffffffff8211171561018957600080fd5b8060405250919050565b600067ffffffffffffffff8211156101aa57600080fd5b601f19601f8301169050602081019050919050565b6000819050919050565b82818337600083830152505050565b838110156101f35780820151818401526020810190506101d8565b83811115610202576000848401525b50505050565b610211816101bf565b811461021c57600080fd5b5056fea365627a7a723158209e65f7626fd89069553c5e2b7e8ffc63421470e78f07426325ab7c31b2a7e2cd6c6578706572696d656e74616cf564736f6c63430005100040",
  "source": "pragma solidity ^0.5.16;\npragma experimental ABIEncoderV2;\n\ncontract write{\n    uint verify_pi_fs_res=0;\n\n    function test(bytes memory x1,bytes memory x2,uint rM,bytes memory y1)public{\n        return;\n        bytes memory input1=abi.encodePacked(x1,rM);\n        bytes32 output;\n        uint len_in=input1.length;\n        uint len_out=output.length;\n        assembly{\n            if iszero(call(not(0),0x07,0,add(input1,0x20),len_in,output,len_out)){\n                // revert(0,0)\n            }\n        }\n        bytes memory input2=abi.encodePacked(output,rM,x2,rM);\n        len_in=input2.length;\n        uint[1] memory res;\n\n\n        assembly{\n            if iszero(call(not(0),0x08,0,add(input2,0x20),len_in,res,0x20)){\n                // revert(0,0)\n            }\n        }\n    }\n}",
  "sourcePath": "/Users/yuzhemeng/go/src/BYSJ/contracts/contract.sol",
  "compiler": {
    "name": "solc",
    "version": "0.5.16+commit.9c3226ce.Emscripten.clang"
  },
  "schemaVersion": "3.4.16",
  "updatedAt": "2024-03-15T09:27:24.553Z",
  "devdoc": {
    "methods": {}
  },
  "userdoc": {
    "methods": {}
  }
}